:100000000C9435000C945D000C945D000C945D0024
:100010000C945D000C945D000C945D000C945D00EC
:100020000C945D000C945D000C945D000C945D00DC
:100030000C945D000C945D000C945D000C945D00CC
:100040000C94E2010C945D000C9452020C942C026E
:100050000C945D000C945D000C945D000C945D00AC
:100060000C945D000C945D006E0311241FBECFEF55
:10007000D8E0DEBFCDBF21E0ACE1B1E001C01D9210
:10008000A63CB207E1F711E0A0E0B1E0E6E1FCE058
:1000900002C005900D92AC31B107D9F710E0C5E36D
:1000A000D0E004C02197FE010E940704C433D107A9
:1000B000C9F70E9484020C9409060C9400003FB713
:1000C000F8948091210190912201A0912301B09197
:1000D000240126B5A89B05C02F3F19F00196A11D4C
:1000E000B11D3FBFBA2FA92F982F8827820F911DCE
:1000F000A11DB11DBC01CD0142E0660F771F881F15
:10010000991F4A95D1F708958F929F92AF92BF920F
:10011000CF92DF92EF92FF926B017C010E945F0011
:100120004B015C01C114D104E104F104F1F00E941F
:100130005F00DC01CB0188199909AA09BB09883E37
:100140009340A105B10570F321E0C21AD108E1087E
:10015000F10888EE880E83E0981EA11CB11CC11422
:10016000D104E104F10419F7DDCFFF90EF90DF90A7
:10017000CF90BF90AF909F908F900895CF92DF92D5
:10018000EF92FF920F931F93CF93DF936C017A014D
:100190008B01C0E0D0E0CE15DF0581F0D8016D9174
:1001A0008D01D601ED91FC910190F081E02DC60109
:1001B0000995892B11F02196EECF7E01C701DF91C1
:1001C000CF911F910F91FF90EF90DF90CF90089506
:1001D000089580E090E00895FC01538D448D252F13
:1001E00030E0842F90E0821B930B541710F0CF96D1
:1001F000089501970895FC01918D828D981761F003
:10020000828DDF01A80FB11D5D968C91928D9F5F4D
:100210009F73928F90E008958FEF9FEF0895FC01F8
:10022000918D828D981731F0828DE80FF11D858DAB
:1002300090E008958FEF9FEF0895FC01918D228D3E
:10024000892F90E0805C9F4F821B91098F739927C3
:10025000089585E291E00E941D0121E0892B09F4B7
:1002600020E0822F0895FC01848DDF01A80FB11DCD
:10027000A35ABF4F2C91848D90E001968F739927DC
:10028000848FA689B7892C93A089B1898C918370BA
:1002900080648C93938D848D981306C00288F389B3
:1002A000E02D80818F7D80830895EF92FF920F93E0
:1002B0001F93CF93DF93EC0181E0888F9B8D8C8D12
:1002C000981305C0E889F989808185FD26C0F62E3E
:1002D0000B8D10E00F5F1F4F0F731127E02E8C8DD9
:1002E000E8120CC00FB607FCFACFE889F9898081C3
:1002F00085FFF5CFCE010E943301F1CF8B8DFE013A
:10030000E80FF11DE35AFF4FF0829FB7F8940B8F6F
:10031000EA89FB89808180620AC09FB7F894EE89E0
:10032000FF896083E889F989808183708064808394
:100330009FBF81E090E0DF91CF911F910F91FF90DF
:10034000EF900895CF93DF93EC01888D8823C9F057
:10035000EA89FB89808185FD05C0A889B9898C91CE
:1003600086FD0FC00FB607FCF5CF808185FFF2CF69
:10037000A889B9898C9185FFEDCFCE010E94330108
:10038000E7CFDF91CF91089580E090E0892B29F0AD
:100390000E94290181110C9400000895009769F0D2
:1003A000FC0101900020E9F73197AF01481B590B80
:1003B000BC0185E291E00C94BE0080E090E00895DD
:1003C0000E94F4051F920F920FB60F9211242F93E3
:1003D0003F938F939F93AF93BF9380911D01909113
:1003E0001E01A0911F01B091200130911C0123E05A
:1003F000230F2D3720F40196A11DB11D05C026E85D
:10040000230F0296A11DB11D20931C0180931D0195
:1004100090931E01A0931F01B093200180912101B0
:1004200090912201A0912301B09124010196A11D78
:10043000B11D8093210190932201A0932301B093D9
:100440002401BF91AF919F918F913F912F910F9078
:100450000FBE0F901F9018951F920F920FB60F921C
:1004600011242F933F934F935F936F937F938F93B9
:100470009F93AF93BF93EF93FF9385E291E00E9428
:100480003301FF91EF91BF91AF919F918F917F9138
:100490006F915F914F913F912F910F900FBE0F90F1
:1004A0001F9018951F920F920FB60F9211242F9341
:1004B0008F939F93EF93FF93E0913501F091360175
:1004C0008081E0913B01F0913C0182FD12C090815E
:1004D00080913E018F5F8F7320913F01821751F011
:1004E000E0913E01F0E0EB5DFE4F958F80933E0181
:1004F00001C08081FF91EF919F918F912F910F907B
:100500000FBE0F901F901895CF93DF93CDB7DEB736
:1005100062970FB6F894DEBF0FBECDBF789484B556
:10052000826084BD84B5816084BD85B5826085BDEF
:1005300085B5816085BD80916E00816080936E007D
:10054000109281008091810082608093810080916F
:100550008100816080938100809180008160809320
:1005600080008091B10084608093B1008091B000E0
:1005700081608093B00080917A00846080937A00DB
:1005800080917A00826080937A0080917A00816005
:1005900080937A0080917A00806880937A0010922C
:1005A000C100E0913501F091360182E08083E09155
:1005B0003101F09132011082E0913301F091340168
:1005C0008FEC808310923D01E0913901F0913A0166
:1005D00086E08083E0913701F0913801808180616D
:1005E0008083E0913701F0913801808188608083B9
:1005F000E0913701F0913801808180688083E0913B
:100600003701F091380180818F7D808385E291E010
:100610000E941D011816190684F061E385E291E03D
:100620000E94550188E191E00E94CE0168EE73E0DE
:1006300080E090E00E948400E9CFCE0101966C0139
:1006400085E291E00E941D01181619060CF043C0C6
:1006500085E291E00E94FB00A12CB12C4AE0B6019A
:10066000C5010E949B03F60101900020E9F7319734
:100670008F010C191D09B8016F5F7F4F80E090E07A
:100680000E942E057C01009739F0FC011082B60112
:100690000E940206A80102C040E050E0B70185E2D6
:1006A00091E00E94BE00C7010E94A50489E191E08B
:1006B0000E94CE016FE070E080E090E00E94840034
:1006C000FFEFAF1ABF0A89E2A816B10439F689E133
:1006D00091E00E94CE010E94C401B2CFE5E2F1E0B8
:1006E0001382128288EE93E0A0E0B0E084839583C9
:1006F000A683B7838AE091E09183808385EC90E0C4
:100700009587848784EC90E09787868780EC90E0DB
:10071000918B808B81EC90E0938B828B82EC90E0CC
:10072000958B848B86EC90E0978B868B118E128E46
:10073000138E148E0895BB274A3031F4992322F486
:10074000BDE2909581959F4F0C94A703BB27FB01B9
:100750005527AA27880F991FAA1FA41710F0A41BBA
:1007600083955051B9F7A05DAA3308F0A95DA19314
:10077000009779F7B111B1931192CB010C94C0039A
:10078000DC01FC01672F71917723E1F7329704C0F8
:100790007C916D9370836291AE17BF07C8F3089583
:1007A0002F923F924F925F926F927F928F929F9281
:1007B000AF92BF92CF92DF92EF92FF920F931F936F
:1007C000CF93DF93CDB7DEB7CA1BDB0B0FB6F89420
:1007D000DEBF0FBECDBF09942A88398848885F8460
:1007E0006E847D848C849B84AA84B984C884DF80D1
:1007F000EE80FD800C811B81AA81B981CE0FD11DB5
:100800000FB6F894DEBF0FBECDBFED010895EE0F19
:10081000FF1F0590F491E02D09940F931F93CF9340
:10082000DF938230910510F482E090E0E091C40102
:10083000F091C50120E030E0A0E0B0E0309719F180
:10084000408151810281138148175907C8F08417EC
:10085000950769F4109731F012960C93129713963E
:100860001C9327C00093C4011093C50122C0211519
:10087000310519F04217530718F49A01BD01EF0131
:10088000DF01F801DBCF21153105F9F0281B390B09
:100890002430310580F48A819B816115710521F036
:1008A000FB019383828304C09093C5018093C401AC
:1008B000FE01329644C0FE01E20FF31F8193919333
:1008C00022503109398328833AC02091C2013091E6
:1008D000C301232B41F42091020130910301309395
:1008E000C3012093C2012091000130910101211523
:1008F000310541F42DB73EB74091040150910501F7
:10090000241B350BE091C201F091C301E217F307FC
:10091000A0F42E1B3F0B2817390778F0AC014E5F6F
:100920005F4F2417350748F04E0F5F1F5093C301E8
:100930004093C2018193919302C0E0E0F0E0CF01C7
:10094000DF91CF911F910F910895CF93DF9300977F
:1009500009F481C0FC01329713821282A091C40174
:10096000B091C501109781F420813181820F931FCE
:100970002091C2013091C3012817390751F5F09336
:10098000C301E093C20167C0ED0120E030E0CE1763
:10099000DF0740F44A815B819E0141155105F1F06A
:1009A000EA01F5CFD383C28340815181840F951F23
:1009B000C817D90759F488819981840F951F029629
:1009C000918380838A819B81938382832115310562
:1009D00029F4F093C501E093C4013DC0E901FB8314
:1009E000EA8349915991C40FD51FEC17FD0761F4B3
:1009F00080819181840F951F0296E90199838883F4
:100A0000828193819B838A83E0E0F0E012968D914E
:100A10009C911397009719F0FD01DC01F7CF8D91A0
:100A20009C9111979D012E5F3F4F820F931F209144
:100A3000C2013091C3012817390769F4309729F4AE
:100A40001092C5011092C40102C013821282B093A9
:100A5000C301A093C201DF91CF910895A0E0B0E05F
:100A6000E4E3F5E00C94D403EC01009721F4CB010E
:100A70000E940D04B4C0FC01E60FF71F9C01225038
:100A80003109E217F30708F4A8C0D9010D911C91B0
:100A9000119706171707B0F00530110508F49BC031
:100AA000C80104978617970708F495C002501109EA
:100AB000061B170B019311936D937C93CF010E943A
:100AC000A50489C05B01A01AB10A4C01800E911ED9
:100AD000A091C401B091C501612C712CE12CF12CC5
:100AE000109709F446C08D919C911197A815B905EE
:100AF000B1F56C0142E0C40ED11CCA14DB0478F1DC
:100B00004C018A189B08640142E0C40ED11C129665
:100B1000BC9012971396AC91B5E0CB16D10440F07F
:100B2000B282A38391828082D9016D937C9309C0A4
:100B30000E5F1F4F800F911FF90191838083EB2D72
:100B4000FA2FE114F10431F0D7011396FC93EE93E0
:100B5000129741C0F093C501E093C4013CC06816F0
:100B6000790608F43C017D0112960D90BC91A02DF0
:100B7000B7CF8091C2019091C30188169906E1F424
:100B800066167706C8F480910001909101010097E4
:100B900041F48DB79EB74091040150910501841B2B
:100BA000950BE817F907C8F4F093C301E093C2016D
:100BB000F901718360830FC0CB010E940D047C0199
:100BC000009759F0A801BE010E94F905CE010E94CC
:100BD000A504C70104C0CE0102C080E090E0CDB7FB
:100BE000DEB7EEE00C94F00381E090E0F8940C9412
:100BF0000906FB01DC0102C001900D9241505040FA
:100C0000D8F70895FB01DC0101900D920020E1F777
:060C10000895F894FFCFE7
:100C16000000C6018000000000005501BE00EC0087
:0C0C2600A2011D01FB000F010D0A0000DF
:00000001FF
